:100000000C942A000C943C000C943C000C943C0092
:100010000C943C000C943C000C943C000C943C0070
:100020000C943C000C943C000C943C000C943C0060
:100030000C943C000C943C000C943C000C943C0050
:100040000C943C000C943C000C943C000C944E002E
:100050000C943C0011241FBECFE5D8E0DEBFCDBF1D
:1000600010E0A0E6B0E001C01D92A137B107E1F7B2
:100070000E943E000C94A8000C94000080E50E94B1
:1000800043007894FFCF82B986B78F7D86BF86B74D
:10009000856486BF8FEF8093600008951F920F9252
:1000A0000FB60F9211248F939F93EF93FF9381B11B
:1000B000887F803A09F43FC028F4803641F08038C8
:1000C000E1F50BC0883AF9F0883BB9F51CC085EC26
:1000D00086BF8FEF8093600032C083B19091600043
:1000E0009F3F31F4813108F422C01092600023C098
:1000F000909160009131C0F4E0916000F0E0EF5920
:10010000FF4F808311C0809160008F3F11F41092E7
:10011000600080916000813168F4E0916000F0E05F
:10012000EF59FF4F808183B9809160008F5F80938A
:10013000600001C013B885EC01C085ED86BFFF915A
:10014000EF919F918F910F900FBE0F901F90189578
:04015000F894FFCF51
:00000001FF
